:100000000C9435010C9466010C9466010C94660105
:100010000C9466010C9466010C9466010C946601C4
:100020000C9466010C9466010C9466010C946601B4
:100030000C9466010C9466010C9466010C946601A4
:100040000C9466010C94BB0C0C9466010C94660134
:100050000C9466010C9466010C9466010C94E70BF9
:100060000C9466010C9466010C9466010C94660174
:100070000C9466010C9466010C9466010C94660164
:100080000C948D0C0C9466010C9466010C94660122
:100090000C9466010C9466010C9466010C94660144
:1000A0000C9466010C9466010C945F0C0C94660130
:1000B0000C9466010C9466010C9466010C94310C4E
:1000C0000C9466010C9466010C9466010C94660114
:1000D0000C9466010C9466010C9466010C94660104
:1000E0000C9466010C94D2040C94EC070C94DD0281
:1000F0000C94EF020C94D0020C94FD020C940703B4
:100100000C9402030C94F9020C94CE040C94D402C7
:100110000C94CC020C9403030C9477020C94C70447
:100120000C94A70F0C94E7020C94D3040C94C8020F
:100130000C94E1020C94EB020C94F5020C94CA04AA
:100140000C94D7020C94C202000021002400270066
:100150002A002D00300033000101000004010701D6
:100160000A0100002200250028002B002E0031008B
:10017000340002010000050108010B0100000A0B18
:1001800002090C0D0E080703040100000000000026
:10019000000000000000000000000000000000005F
:1001A000000000000000000012111000000000001C
:1001B000000000000000000000000000000000003F
:1001C0000000000020002300260029002C002F0042
:1001D00032000001000003010601090105050505C3
:1001E000070508080808020202020A0A08080404AF
:1001F00004040101010101010101030303030303DD
:100200000303040707070C0C0C0C0C0C0C0C02026B
:10021000020206060606060606060B0B0B0B0B0B68
:100220000B0B0102102020080810204010204080F5
:1002300002010201080402010102040810204080AA
:100240008040201008040201800402018040201038
:100250000804020108040201010204081020408081
:100260000102040810204080A70F11241FBECFEF09
:10027000D1E2DEBFCDBF00E00CBF13E0A0E0B2E0F2
:10028000E0EFF7E200E00BBF02C007900D92A83448
:10029000B107D9F724E0A8E4B3E001C01D92AB395F
:1002A000B207E1F711E0C5E3D1E000E006C0219715
:1002B0000109802FFE010E94D811C433D10780E0CC
:1002C0000807A9F70E942E0D0C94F6130C94000059
:1002D000CF92DF92EF92FF92DC01A03282E0B8076A
:1002E000D4F5A53BB10514F0A4EBB0E040917D043A
:1002F00028E830E0241B310947FD3395220F331FD6
:10030000220F331F6901330FEE08FF0840917E046E
:1003100028E532E0241B310947FD3395220F331FB6
:10032000220F331F032E000C440B550B2C193D09D3
:100330004E095F09B7FF02C0B0E0A0E00E945D1166
:1003400024EB30E040E050E00E943311C20ED31E97
:10035000E41EF51ED601E0917C04E03380F5209187
:100360007D0488E890E0821B910927FD9395880F12
:10037000991F880F991FA817B90784F020917E0450
:1003800088E592E0821B910927FD9395880F991FBC
:10039000880F991FA817B9070CF4CD010297880F91
:1003A000991F4FB7F8942E2F30E0F901EE0FFF1F81
:1003B000E20FF31FE451FC4F928381834FBFFF9004
:1003C000EF90DF90CF90089596E0899FD00111249F
:1003D000A358BC4F90967C936E935F9791E0919653
:1003E0009C939197E091EA03F091EB039091E903DC
:1003F000992339F0309751F0811108C08091990309
:100400001994309719F05C968C91FACF0895CF9299
:10041000DF92EF92FF920F931F9396E0899FF00176
:100420001124E358FC4F11A2278D30A12130310552
:1004300051F178F02230310509F451C023303105F3
:1004400009F452C01F910F91FF90EF90DF90CF9071
:1004500008956623B9F361E070E00E94E4012FB7CC
:10046000F8948091790390917A03A0917B03B091E5
:100470007C032FBF8093D5039093D603A093D7031B
:10048000B093D803DFCF9FB7F894C0907903D09092
:100490007A03E0907B03F0907C039FBF0091D5032B
:1004A0001091D6032091D7033091D803C01AD10AF6
:1004B000E20AF30A0091E7031091E80330E020E03C
:1004C0000C151D052E053F0550F462E070E01F91EC
:1004D0000F91FF90EF90DF90CF900C94E4016111A9
:1004E000B1CF63E070E0F3CF70E060E0F0CFAF92A7
:1004F000BF92CF92DF92EF92FF920F931F93CF9311
:10050000DF936C017B018B01040F151FEB015E0172
:10051000AE18BF08C017D10759F06991D601ED9107
:10052000FC910190F081E02DC6011995892B79F796
:10053000C501DF91CF911F910F91FF90EF90DF9058
:10054000CF90BF90AF9008958150823108F05AC08B
:10055000E82FF0E08827E055FD4F8F4F0C94D8111D
:10056000D002D402C202C802CC020203D702DD02CA
:10057000E102E702EB02EF02F502F9020203FD02DB
:1005800003030703809180008F7780938000089594
:10059000809180008F7DF9CF80918000877FF5CF9B
:1005A00084B58F7784BD089584B58F7DFBCF80910E
:1005B000B0008F778093B00008958091B0008F7D58
:1005C000F9CF809190008F7780939000089580916B
:1005D00090008F7DF9CF80919000877FF5CF80913B
:1005E000A0008F778093A00008958091A0008F7D58
:1005F000F9CF8091A000877FF5CF809120018F7780
:10060000809320010895809120018F7DF9CF809102
:100610002001877FF5CFCF93DF93282F30E0F901BA
:10062000E458FE4F8491F901EE5DFD4FD491F9013C
:10063000E452FE4FC491CC23A1F081110E94A40288
:10064000EC2FF0E0EE0FFF1FEE53FE4FA591B4919B
:10065000EC91ED2381E090E009F480E0DF91CF910F
:10066000089580E090E0FACF1F93CF93DF93282F77
:1006700030E0F901E458FE4F8491F901EE5DFD4F41
:10068000D491F901E452FE4FC491CC23A9F0162F66
:1006900081110E94A402EC2FF0E0EE0FFF1FEE5933
:1006A000FE4FA591B4918FB7F894EC91111108C049
:1006B000D095DE23DC938FBFDF91CF911F910895FA
:1006C000DE2BF8CFCF93DF9390E0FC01EE5DFD4F82
:1006D000249184529E4FFC0184918823C9F090E0BC
:1006E000880F991FFC01E85BFE4FA591B491FC01B6
:1006F000EE59FE4FC591D49161110DC09FB7F8948A
:100700008C91209582238C938881282328839FBFF6
:10071000DF91CF910895623051F49FB7F8943C91E6
:10072000822F809583238C93E8812E2BEFCF8FB778
:10073000F894EC912E2B2C938FBFEACF90917B00F5
:10074000977F90937B008653806480937C00809198
:100750007A00806480937A0080917A0086FDFCCFD5
:10076000809178009091790008953FB7F894809136
:10077000600390916103A0916203B091630326B579
:10078000A89B05C02F3F19F00196A11DB11D3FBFC9
:10079000BA2FA92F982F8827BC01CD01620F711D98
:1007A000811D911D42E0660F771F881F991F4A9592
:1007B000D1F708958F929F92AF92BF92CF92DF921E
:1007C000EF92FF926B017C010E94B5034B015C012B
:1007D000C114D104E104F104B9F00E94B503681911
:1007E00079098A099B09683E73408105910580F368
:1007F00021E0C21AD108E108F10888EE880E83E0F2
:10080000981EA11CB11CE4CFFF90EF90DF90CF9019
:10081000BF90AF909F908F900895AF92BF92CF926C
:10082000DF92EF92FF920F931F93CF93DF936B01B1
:100830007A01EC01C55ADC4F28813CE0389F8001E9
:10084000399F100D1124A0905A03B12C27FF1FC00F
:10085000FB011182108288818F5F888388819801D3
:10086000280F311D87FD3A95F6012A153B051CF42A
:1008700088818C30C4F180819181049680349C49B8
:1008800008F473C0F60180819181049670C088815C
:100890009801280F311D87FD3A952A153B05DCF696
:1008A0008881A801480F511D87FD5A95FA01EE0F66
:1008B000FF1FE40FF51FE451FC4F808186FFCBCF73
:1008C0008881F801E80FF11D87FDFA95CF01EE0F41
:1008D000FF1FE80FF91FE451FC4F808160E08F7328
:1008E0000E943403B8CF808191812881A801420FF2
:1008F000511D27FD5A959A01FA01EE0FFF1FE20FD5
:10090000F31FE451FC4F21813281820F931FF701C5
:100910009183808388819801280F311D87FD3A9546
:10092000F901EE0FFF1FE20FF31FE451FC4F80812E
:1009300086FF22C08881080F111D87FD1A95F801D6
:10094000EE0FFF1FE00FF11FE451FC4F808161E0CB
:100950008F73DF91CF911F910F91FF90EF90DF90F8
:10096000CF90BF90AF900C94340380E49CE9F701E2
:10097000918380838FEF8883DF91CF911F910F91B7
:10098000FF90EF90DF90CF90BF90AF900895862FAB
:100990000C940B03862F642F0C943403862F642F42
:1009A0000C946203089590E080E00895CF93DF9364
:1009B0001092650310926403C0916403D0916503A3
:1009C000CB35D1057CF4CE010E94680162E370E072
:1009D00080E090E00E94DA032196D0936503C093F3
:1009E0006403EACFDF91CF9108958F929F92AF92E7
:1009F000BF920F931F93CF93DF93CDB7DEB7A1972D
:100A00000FB6F894DEBF0FBECDBF19A2423008F476
:100A10004AE08E010F5D1F4F842E912CB12CA12C2A
:100A2000A50194010E946511E62FB901CA01EA30BF
:100A300044F5E05DD801EE938D01232B242B252B6B
:100A400079F790E080E0109769F0FD0101900020B7
:100A5000E9F73197AF014A1B5B0BBD018FE794E0CB
:100A60000E947702A1960FB6F894DEBF0FBECDBFED
:100A7000DF91CF911F910F91BF90AF909F908F907A
:100A80000895E95CD7CFFC0101900020E9F7319788
:100A9000AF01481B590BBC018FE794E00C9477021F
:100AA0000F931F9390E0FC01EE5DFD4F6491FC01FC
:100AB000E452FE4FE491F0E0EE0FFF1FEE53FE4FC5
:100AC0008591949100E412E42FE030E0462F0E94DB
:100AD000E90C611571058105910529F06F5F7F4F64
:100AE0008F4F9F4F9F701F910F9108950F931F93EA
:100AF000CF93DF93EC0188819981009759F02A8187
:100B00003B812617370730F081E0DF91CF911F91AD
:100B10000F9108958B016F5F7F4F0E94051300971F
:100B200059F0998388831B830A832C813D81232B71
:100B300059F7FC011082E8CF80E0E7CFCF93DF9335
:100B4000EC0188819981009711F00E947C12198232
:100B500018821D821C821B821A82DF91CF91089518
:100B6000EF92FF920F931F93CF93DF938C017B0142
:100B7000EB0109900020E9F72197C61BD70BBE01B6
:100B80000E947605811109C0C801DF91CF911F91A4
:100B90000F91FF90EF900C949E05F801D583C483CC
:100BA000B70180819181DF91CF911F910F91FF90CB
:100BB000EF900C94EF13FC0180819181009711F06C
:100BC0000C947C120895CF93DF93EC0160E08E814A
:100BD0000E94340361E08E810E94340360E08E81C4
:100BE0000E9434038BE891E00197F1F7DF91CF91F8
:100BF0000895CF92DF92EF92FF920F931F93CF93BE
:100C0000DF936C017C0187E0E80EF11CD0E0C0E0CE
:100C1000062F10E0B8010C2E02C0759567950A9456
:100C2000E2F76170F70181917F010E943403219600
:100C3000C430D10579F7C601DF91CF911F910F9193
:100C4000FF90EF90DF90CF900C94E305CF92DF926E
:100C5000EF92FF920F931F93CF93DF93EC01F62E49
:100C6000642F8C810E9434038D818F3F19F060E0E6
:100C70000E9434030F2D10E08F8584FF25C06E0184
:100C800087E0C80ED11CF12CE12CB8010E2C02C05B
:100C9000759567950A94E2F76170F60181916F018D
:100CA0000E943403FFEFEF1AFF0A88E0E816F10410
:100CB00061F7CE01DF91CF911F910F91FF90EF90DF
:100CC000DF90CF900C94E305B80184E075956795AB
:100CD0008A95E1F7CE010E94F9056F2DCE01DF91D3
:100CE000CF911F910F91FF90EF90DF90CF900C94D8
:100CF000F90540E0682F8FE794E00C94260681E028
:100D00000E9479068BE39FE10197F1F70895CF9355
:100D1000DF93823029F490918E04986090938E0432
:100D2000809392041092930480E48093940480E171
:100D30008093950480E58093960461E0809183041C
:100D40000E946203809184048F3F19F061E00E9449
:100D5000620361E0809185040E946203CFE7D4E0E2
:100D60009E012F57344080918E0484FD0BC084E097
:100D700090E021962817390744F461E08E810E94A3
:100D80006203EECF88E090E0F4CF8BE39DE0019723
:100D9000F1F760E0809183040E94340360E0809169
:100DA00085040E943403809184048F3F19F060E031
:100DB0000E94340380918E0484FD34C063E08FE789
:100DC00094E00E94F905CBE4D6E4CE010197F1F757
:100DD00063E08FE794E00E94F9052197F1F763E063
:100DE0008FE794E00E94F90583E592E00197F1F71F
:100DF00062E08FE794E00E94F90580918E048062A2
:100E00000E94790684E080938F048CE00E9479062A
:100E10000E947F0682E08093900486E0DF91CF916C
:100E20000C94790680620E9479068BE496E401971F
:100E3000F1F780918E0480620E94790683E592E04A
:100E40000197F1F780918E0480620E947906D5CFD8
:100E500090919204691710F06FEF690FE62FF0E0A0
:100E6000E158FB4F9489890F80680C947906CF93E1
:100E7000DF93C3E4D0E061E08EE30E94620361E0AF
:100E80008FE30E94620361E08EE30E94340361E01D
:100E90008FE30E94340360E083E00E94280788E328
:100EA00092E00E94430561E083E00E94280782E40B
:100EB00092E00E94430566E970E080E090E00E94C5
:100EC000DA0360E08EE30E94340360E08FE30E9467
:100ED000340366E970E080E090E00E94DA03219735
:100EE00051F6DF91CF910895CF93DF93C1E0D0E029
:100EF000C130D105A9F586E30E949E039093490372
:100F000080934803909375038093740360E081E0BD
:100F10000E9428078DE492E00E94430580914803D7
:100F20009091490361E08A369105A4F481E00E9422
:100F300028078DE592E00E94430568EB7BE080E0A6
:100F400090E00E94DA032196C530D10589F6DF9141
:100F5000CF91089581E00E94280789E692E0EBCFC7
:100F6000C230D10591F487E30E949E039093490318
:100F700080934803909371038093700360E081E055
:100F80000E94280787E792E0C7CFC330D10591F4CC
:100F900088E30E949E0390934903809348039093B3
:100FA0006D0380936C0360E081E00E94280787E86E
:100FB00092E0B2CF89E30E949E039093490380930D
:100FC0004803909369038093680360E081E00E9486
:100FD000280787E992E0A0CF41E00E94260681E041
:100FE00090E008956F927F928F929F92AF92BF92FE
:100FF000CF92DF92EF92FF920F931F93CF93DF93E5
:1010000081E08093E9038FB7F89440917903509180
:101010007A0360917B0370917C038FBF8091D90329
:101020009091DA03A091DB03B091DC03481B590BCC
:101030006A0B7B0B8091E5039091E603B0E0A0E0A2
:1010400084179507A607B70708F019C1C0E080917B
:10105000E303C81760F4E091DF03F091E003EC0FC5
:10106000F11D62E080810E946203CF5FF0CF712C9E
:10107000812C912C540183948091E403781608F01C
:101080005FC0072D10E0E091E103F091E203E00F73
:10109000F11F61E080810E946203E091E103F09121
:1010A000E203E00FF11F60E080810E943403D5016C
:1010B000C401072C04C0880F991FAA1FBB1F0A94E4
:1010C000D2F76C017C01E094F094612C8091E303F1
:1010D0006816F8F4C62DD0E0E091DF03F091E0034C
:1010E000EC0FFD1F80810E940B032496CC0FDD1FA7
:1010F000C358DC4F892B41F4888199818C299D2923
:10110000998388836394E2CF888199818E219F217E
:10111000F7CFE091E103F091E203E00FF11F61E00E
:1011200080810E9434038091E1039091E203080FD3
:10113000191F60E0F80180810E94620373949CCFC4
:10114000CDE7D3E0FE018FEF9FEF278D30A1232B5A
:1011500021F4148E968F858F11A2369623E0E93BF9
:10116000F20799F7F12C96E0D92E8091E303F81657
:1011700008F050C0E12C0F2D10E0000F111F0B578D
:101180001C4F2091E403E21608F042C0F801608190
:1011900071810E2C02C0769567950A94E2F7F29E53
:1011A000900111242E0D311DEDE7F3E080E0458D17
:1011B000568D2417350709F430C28F5F36968A3072
:1011C000B1F760FF23C0EDE7F3E090E080E0448DED
:1011D000411117C0E091DD03F091DE03E20FF31F30
:1011E0004081D89EF001D99EF00D1124E358FC4FA8
:1011F000448F368F258F10A2178E61E00E94070260
:1012000005C0019636968A30910509F7E394B9CF67
:10121000F394ABCF80E099A19111892F2696F3E04A
:10122000C93BDF07C1F79FB7F8944091790350910C
:101230007A0360917B0370917C039FBF4093D90335
:101240005093DA036093DB037093DC038823B9F0D7
:1012500080919E03882399F080919C0390919D0337
:10126000019769F4C0919903C1110CC060E080E05E
:101270000E94280789EF92E00E94430533C0109234
:10128000E903F4CF0091580310915903D5E0D00F32
:1012900061E08D2F0E94280741E06C2F8FE794E0DA
:1012A0000E94260661E08D2F0E94280741E06AE235
:1012B0008FE794E00E942606C0530F5F1F4F1093E4
:1012C0005903009358030330110509F4CBC0F4F41B
:1012D0000130110509F4B4C00230110509F4B9C098
:1012E000CC2321F262E070E080E090E0DF91CF91CA
:1012F0001F910F91FF90EF90DF90CF90BF90AF9034
:101300009F908F907F906F900C94DA0305301105B9
:1013100009F4BAC00CF4AFC00630110509F70C2F60
:101320000C2E000C110B10934D0300934C0364E63C
:1013300070E080E090E00E94DA0380915603909183
:101340005703029709F0A9C0809154039091550367
:10135000892B09F0A2C08091520390915303029708
:1013600009F09BC08091500390915103019709F0BF
:1013700094C080914E0390914F03892B09F08DC04A
:101380000430110509F089C00E947F0660E083E007
:101390000E94280787EA92E00E94430561E083E00B
:1013A0000E94280784EB92E00E94430581E080932D
:1013B0007603109278030E94D60461E086E30E94CF
:1013C000340360E086E30E943403809156039091D9
:1013D0005703029709F082C08091540390915503FE
:1013E000892B09F07BC0809152039091530302979F
:1013F00009F074C08091500390915103019709F056
:101400006DC080914E0390914F03892B09F066C007
:1014100080914C0390914D03049709F05FC01092A6
:101420004B0310924A0383E090E090930102809373
:10143000000210925903109258030E947F0650CF69
:101440008C2F0C2E000C990B90935703809356030E
:1014500047CF8C2F0C2E000C990B90935503809343
:1014600054033ECF8C2F0C2E000C990B90935303FA
:101470008093520335CF8C2F0C2E000C990B909338
:101480005103809350032CCF8C2F0C2E000C990B02
:1014900090934F0380934E0323CF0E947F0660E01A
:1014A00083E00E9428078DEB92E00E94430561E0F3
:1014B00082E00E94280786EC92E00E94430561E0EA
:1014C00087E30E94340360E971E080E090E00E94CD
:1014D000DA030E947F0660E087E375CF80914A03BC
:1014E00090914B03019690934B0380934A03809114
:1014F00000029091010201979093010280930002F3
:1015000060E082E00E94280782ED92E00E9443059D
:1015100060E08DE00E942807C0900002D090010298
:101520000D2C000CEE08FF084AE0C701B601F7FEDB
:101530000EC041E06DE28FE794E00E942606662728
:101540007727CB016C197D098E099F094AE00E941B
:10155000F50461E082E00E9428078DED92E00E9490
:1015600043058091000290910102892BB9F40E94F9
:101570007F0660E085E00E94280789EE92E00E94E5
:10158000430561E084E00E94280780EF92E00E941A
:1015900043051092780381E0809377036CE271E059
:1015A00080E090E00E94DA030E947F06D1E003E031
:1015B00010E080914A0390914B0303970CF439CFCC
:1015C000D09377030E943707D09378031092770364
:1015D0001092570310925603109255031092540321
:1015E0001092530310925203109251031092500321
:1015F00010924F0310924E0310924D0310924C0321
:1016000010924B0310924A031093010200930002C0
:101610001092590310925803CCCF6170EFCD3F92D6
:101620004F925F926F927F928F929F92AF92BF92F2
:10163000CF92DF92EF92FF920F931F93CF93DF939E
:1016400000D000D0CDB7DEB75C018B01FB01448038
:10165000558090E1F92E0E947F0661E08F2D0E9457
:101660002807F80144815581608171818FE794E0FA
:101670000E94770266E970E080E090E00E94DA0361
:10168000FA94F110E8CF66246394712CF801E48099
:10169000F580461457040CF46DC04301F1E08F1A35
:1016A0009108E814F90428F09E2D8F2D7401892EDD
:1016B000982E1A8219821C821B821E821D8267E468
:1016C00073E0CE0101960E94B005F801C480D58078
:1016D000EC14FD0458F58C149D0408F46401F80121
:1016E00080819181FC01EC0DFD1D30801082E80E9F
:1016F000F91EE114F10479F0F70101900020E9F7F7
:1017000031974F018E189F08B401CE0101960E94B7
:101710007605811127C0CE0101960E949E05F80131
:1017200080819181C80ED91EF601308261E080E08F
:101730000E9428074D815E8169817A818FE794E05C
:101740000E94770266E970E080E090E00E94DA0390
:101750000E947F06CE0101960E94DB05FFEF6F1A03
:101760007F0A94CF9E828D82B70189819A810E94DF
:10177000EF13D5CF80819181F50191838083F801AA
:1017800082819381F50193838283F582E482F8015B
:10179000118210821382128215821482C50126964C
:1017A0000FB6F894DEBF0FBECDBFDF91CF911F9172
:1017B0000F91FF90EF90DF90CF90BF90AF909F90F0
:1017C0008F907F906F905F904F903F9008951F9201
:1017D0000F920FB60F9211242F933F938F939F93E5
:1017E000AF93BF938091790390917A03A0917B038B
:1017F000B0917C0330915F0323E0230F2D3758F520
:101800000196A11DB11D20935F03809379039093EE
:101810007A03A0937B03B0937C0380916003909143
:101820006103A0916203B09163030196A11DB11DF4
:101830008093600390936103A0936203B09363036A
:10184000BF91AF919F918F913F912F910F900FBEBC
:101850000F901F90189526E8230F0296A11DB11D29
:10186000D2CF1F920F920FB60F9211240BB60F9288
:101870002F933F934F935F936F937F938F939F9398
:10188000AF93BF93EF93FF9348E251E064E271E0BE
:1018900090E080E00E940D04FF91EF91BF91AF9125
:1018A0009F918F917F916F915F914F913F912F9178
:1018B0000F900BBE0F900FBE0F901F9018951F92A8
:1018C0000F920FB60F9211240BB60F922F933F93E6
:1018D0004F935F936F937F938F939F93AF93BF9338
:1018E000EF93FF9348EA50E064EA70E083E090E011
:1018F0000E940D04FF91EF91BF91AF919F918F9145
:101900007F916F915F914F913F912F910F900BBEFF
:101910000F900FBE0F901F9018951F920F920FB649
:101920000F9211240BB60F922F933F934F935F9317
:101930006F937F938F939F93AF93BF93EF93FF9397
:1019400048E950E064E970E082E090E00E940D0414
:10195000FF91EF91BF91AF919F918F917F916F9187
:101960005F914F913F912F910F900BBE0F900FBE43
:101970000F901F9018951F920F920FB60F9211247F
:101980000BB60F922F933F934F935F936F937F9379
:101990008F939F93AF93BF93EF93FF9348E850E0EB
:1019A00064E870E081E090E00E940D04FF91EF9107
:1019B000BF91AF919F918F917F916F915F914F9167
:1019C0003F912F910F900BBE0F900FBE0F901F9065
:1019D0001895CF92DF92EF92FF920F931F93E82F0B
:1019E000F92F05C0015011092109310961F19081D8
:1019F00096239417B9F305C0015011092109310943
:101A000011F1908196239413F7CFC12CD12CE12CA6
:101A1000F12C0AC08FEFC81AD80AE80AF80A0C1588
:101A20001D052E053F0579F080818623841791F3EB
:101A30006C2D7D2D8E2D9F2D1F910F91FF90EF907E
:101A4000DF90CF90089560E070E080E090E01F911B
:101A50000F91FF90EF90DF90CF900895CF93DF9399
:101A6000CDB7DEB72C970FB6F894DEBF0FBECDBF53
:101A7000789484B5826084BD84B5816084BD85B569
:101A8000826085BD85B5816085BD80916E00816075
:101A900080936E001092810080918100826080931B
:101AA000810080918100816080938100809180001D
:101AB0008160809380008091B10084608093B10048
:101AC0008091B00081608093B0008091910082602D
:101AD000809391008091910081608093910080912A
:101AE00090008160809390008091A100826080933B
:101AF000A1008091A10081608093A1008091A0004D
:101B000081608093A00080912101826080932101F7
:101B10008091210181608093210180912001816069
:101B20008093200180917A00846080937A00809174
:101B30007A00826080937A0080917A00816080933D
:101B40007A0080917A00806880937A001092C100B8
:101B500082E00E94870660E081E40E94620361E007
:101B600080E40E94620360E084E40E94620361E01A
:101B700083E40E94620380917C04803308F052C0A9
:101B800061E081E00E94620380917C04282F30E0B4
:101B9000F901EE0FFF1FE20FF31FE451FC4F90819C
:101BA000907C9160908310927D0410927E042CE0D2
:101BB000622F0E94CC11829FB001112430E020E0FE
:101BC000AB01420F531FFA01EE0FFF1FE40FF51F89
:101BD000E451FC4F908196FD17C02F5F3F4F2C3092
:101BE000310571F7813009F068C01092800082E001
:101BF000809381001092850010928400B19A8091A8
:101C00006F00826080936F00E0917C048E2F90E0E3
:101C1000FC01EE0FFF1FE80FF91FE451FC4F80811C
:101C20008064808383E2282E312C60E083E40E946C
:101C300034038FE090E00197F1F761E083E40E94C4
:101C40003403C1010197F1F760E083E40E9434039B
:101C500084E40E9450050E943A1028E23EE74CE0DE
:101C60005DE30E94751020E030E040E05FE30E94F9
:101C700075100E94961166397105810591050CF069
:101C80004CC08AE590E090936503809364030091D3
:101C900064031091650317FD3CC0C8010E946801F0
:101CA00062E370E080E090E00E94DA0301501109E5
:101CB0001093650300936403EACF823061F41092BD
:101CC000900080939100109295001092940088BB30
:101CD0008093710099CF833069F41092A00082E064
:101CE0008093A1001092A5001092A40089BB80935C
:101CF00072008ACF811188CF1092200182E08093F8
:101D0000210110922501109224018ABB8093730057
:101D10007BCF0E94D6040E947F0680911B028823FD
:101D2000F1F118861F821A8619861C861B8669E0C7
:101D300073E0CE0107960E94B005BE01695F7F4F38
:101D4000CE0101960E940F0BCE0101960E94DB0589
:101D5000CE0107960E94DB0566E970E080E090E026
:101D60000E94DA030E947F0618861F821A8619864F
:101D70001C861B866FE173E0CE0107960E94B005BA
:101D8000BE01695F7F4FCE0101960E940F0BCE010D
:101D900001960E94DB05CE0107960E94DB0580912B
:101DA0001A028823B9F160E080E40E9434038FE0D6
:101DB00090E00197F1F761E080E40E943403C101F3
:101DC0000197F1F760E080E40E94340381E40E940F
:101DD00050050E943A1028E23EE74CE05DE30E9485
:101DE000751020E030E040E05FE30E9475100E9433
:101DF000961166397105810591050CF07AC00E9433
:101E00007F0610921B0210921A0281E080937803E1
:101E10000E94F20780917803882331F08091770344
:101E2000811102C00E94F20780917603882309F491
:101E300053C00091740310917503109373030093C2
:101E4000720386E30E949E034C0190937503809376
:101E50007403E0907003F0907103F0926F03E092CE
:101E60006E0387E30E949E035C019093710380934D
:101E7000700360906C0370906D0370926B036092BE
:101E80006A0388E30E949E036C0190936D03809324
:101E90006C0340906803509069035092670340922E
:101EA000660389E30E949E0390936903809368030D
:101EB00098012E0D3F1D260D371D240D351D232B9A
:101EC00001F594012A0D3B1D2C0D3D1D280F391FD6
:101ED000232BB9F40E9474078091770381110E942B
:101EE000370780E090E0892B09F49FCE0E94000024
:101EF0009CCE81E080931A0280931B020E947F0691
:101F000089CF08191909EA18FB08E00EF11E6C18B0
:101F10007D086E0C7F1C8419950986159705D1F6EE
:101F200060E081E00E9428078CE293E00E94430574
:101F300061E081E00E9428078AE393E00E94430564
:101F400060E273E080E090E00E94DA03C5CF809108
:101F50005A03803308F088C091E0980F90935A0399
:101F600080937C0490E0FC01EE0FFF1FE80FF91F47
:101F7000E451FC4F88EB9BE09283818310927F03B6
:101F800010928303109282031092840382E392E002
:101F900090937E0380937D03E9E9F3E0108214823D
:101FA00013821582369683E0E53DF807B9F786E09F
:101FB00092E09093E0038093DF0382E092E09093BD
:101FC000E2038093E10384E08093E3038093E403DE
:101FD0008AE092E09093DE038093DD038AE090E054
:101FE0009093E6038093E50384EF91E09093E803F8
:101FF0008093E7031092EB031092EA031092D90347
:102000001092DA031092DB031092DC031092E903C2
:10201000109282041092810486E292E090938004F0
:1020200080937F048DE0809383048FEF80938404FA
:102030008CE0809385048BE0809386048AE0809313
:10204000870489E08093880488E080938904109253
:102050008A0410928B0410928C0410928D041092BA
:102060008E0481E00C9487068FEF80937C0486CFEA
:10207000E89409C097FB3EF4909580957095619522
:102080007F4F8F4F9F4F9923A9F0F92F96E9BB27D8
:102090009395F695879577956795B795F111F8CF54
:1020A000FAF4BB0F11F460FF1BC06F5F7F4F8F4FBF
:1020B0009F4F16C0882311F096E911C0772321F0B5
:1020C0009EE8872F762F05C0662371F096E8862F4D
:1020D00070E060E02AF09A95660F771F881FDAF7A4
:1020E000880F9695879597F908950E9488100C940B
:1020F000F9100E94EB1038F00E94F21020F09523A6
:1021000011F00C94E2100C94E81011240C942D1191
:102110000E940A1170F3959FC1F3950F50E0551F6F
:10212000629FF001729FBB27F00DB11D639FAA272C
:10213000F00DB11DAA1F649F6627B00DA11D661F7B
:10214000829F2227B00DA11D621F739FB00DA11D9C
:10215000621F839FA00D611D221F749F3327A00D56
:10216000611D231F849F600D211D822F762F6A2FF2
:1021700011249F5750409AF0F1F088234AF0EE0F57
:10218000FF1FBB1F661F771F881F91505040A9F784
:102190009E3F510580F00C94E2100C942D115F3F8E
:1021A000E4F3983ED4F3869577956795B795F795C0
:1021B000E7959F5FC1F7FE2B880F911D9695879538
:1021C00097F9089597F99F6780E870E060E00895B7
:1021D0009FEF80EC089500240A941616170618063F
:1021E0000906089500240A9412161306140605061B
:1021F0000895092E0394000C11F4882352F0BB0FAC
:1022000040F4BF2B11F460FF04C06F5F7F4F8F4F0E
:102210009F4F089557FD9058440F551F59F05F3F49
:1022200071F04795880F97FB991F61F09F3F79F0F8
:1022300087950895121613061406551FF2CF46957A
:10224000F1DF08C0161617061806991FF1CF8695FC
:102250007105610508940895E894BB2766277727E0
:10226000CB0197F90895052E97FB1EF400940E9468
:102270004A1157FD07D00E94651107FC03D04EF4A8
:102280000C944A1150954095309521953F4F4F4FF2
:102290005F4F089590958095709561957F4F8F4F12
:1022A0009F4F08950E948711A59F900DB49F900D98
:1022B000A49F800D911D11240895B7FF0C94521115
:1022C0000E945211821B930B0895A1E21A2EAA1BA1
:1022D000BB1BFD010DC0AA1FBB1FEE1FFF1FA217D6
:1022E000B307E407F50720F0A21BB30BE40BF50BD3
:1022F000661F771F881F991F1A9469F7609570955C
:10230000809590959B01AC01BD01CF010895A29FDE
:10231000B001B39FC001A39F700D811D1124911DB9
:10232000B29F700D811D1124911D08950E949D1171
:102330006894B1110C942D1108950E94121188F027
:102340009F5798F0B92F9927B751B0F0E1F0660F79
:10235000771F881F991F1AF0BA95C9F714C0B130BA
:1023600091F00E942C11B1E008950C942C11672F6C
:10237000782F8827B85F39F0B93FCCF386957795E9
:102380006795B395D9F73EF49095809570956195D2
:102390007F4F8F4F9F4F0895991B79E004C0991F7D
:1023A000961708F0961B881F7A95C9F780950895AF
:1023B000EE0FFF1F881F8BBF0790F691E02D199439
:1023C0000F931F93CF93DF938230910510F482E037
:1023D00090E0E0919904F0919A0430E020E0B0E0C0
:1023E000A0E0309799F42115310509F44AC0281B63
:1023F000390B24303105D8F58A819B81611571052F
:1024000089F1FB0193838283FE0111C040815181D8
:102410000281138148175907E0F04817590799F4CA
:10242000109761F012960C93129713961C933296A4
:10243000CF01DF91CF911F910F91089500939904DF
:1024400010939A04F4CF2115310551F04217530728
:1024500038F0A901DB019A01BD01DF01F801C1CF0C
:10246000EF01F9CF90939A0480939904CDCFFE01A8
:10247000E20FF31F8193919322503109398328830E
:10248000D7CF2091970430919804232B41F42091C9
:102490001E0230911F0230939804209397042091DC
:1024A0001C0230911D022115310541F42DB73EB7B4
:1024B0004091200250912102241B350BE09197049A
:1024C000F0919804E217F307A0F42E1B3F0B281796
:1024D000390778F0AC014E5F5F4F2417350748F09D
:1024E0004E0F5F1F509398044093970481939193EC
:1024F0009FCFF0E0E0E09CCFCF93DF930097E9F02F
:10250000FC01329713821282A0919904B0919A042F
:10251000ED0130E020E01097A1F420813181820F9D
:10252000931F20919704309198042817390709F0D8
:1025300061C0F0939804E0939704DF91CF910895E0
:10254000EA01CE17DF07E8F54A815B819E0141155C
:102550005105B1F7E901FB83EA8349915991C40F11
:10256000D51FEC17FD0761F4808191810296840FDD
:10257000951FE90199838883828193819B838A8354
:10258000F0E0E0E012968D919C9113970097B9F5D9
:102590002D913C911197CD010296820F931F2091AE
:1025A0009704309198042817390739F6309751F578
:1025B00010929A0410929904B0939804A0939704EF
:1025C000BCCFD383C28340815181840F951FC8172C
:1025D000D90761F44E5F5F4F88819981480F591F79
:1025E000518340838A819B819383828321153105A6
:1025F00009F0B0CFF0939A04E09399049ECFFD01C7
:10260000DC01C0CF13821282D7CF4F925F926F92BC
:102610007F928F929F92AF92BF92CF92DF92EF9272
:10262000FF920F931F93CF93DF938C01009799F440
:10263000CB01DF91CF911F910F91FF90EF90DF9031
:10264000CF90BF90AF909F908F907F906F905F9052
:102650004F900C94E011FC01E60FF71F9C012250F3
:102660003109E217F30708F4AEC0D901CD91DC912E
:102670001197C617D70720F1C530D10578F0CE01E4
:1026800004978617970750F0C61BD70B2297C19364
:10269000D1936D937C93CF010E947C12C801DF918E
:1026A000CF911F910F91FF90EF90DF90CF90BF904F
:1026B000AF909F908F907F906F905F904F90089514
:1026C0005B01AC1ABD0A4C018C0E9D1EA0919904B1
:1026D000B0919A04512C412CF12CE12C109731F53A
:1026E00080919704909198048815990509F05CC031
:1026F0004616570608F058C080911C0290911D02A2
:10270000009741F48DB79EB740912002509121026D
:10271000841B950BE817F90708F055C0F09398044F
:10272000E0939704F90171836083B8CF8D919C91F8
:10273000119712966C90129713967C901397A81588
:10274000B90559F56C0142E0C40ED11CCA14DB0472
:1027500020F1AC014A195B09DA011296159780F055
:102760006282738251834083D9016D937C93E1141B
:10277000F10471F0D7011396FC93EE9312978ECF6C
:1027800022968C0F9D1FF90191838083F301EFCF77
:10279000F0939A04E093990481CF4816590608F4FF
:1027A0002C017D01D3019ACFCB010E94E0117C0165
:1027B000009749F0AE01B8010E94E613C8010E94DB
:1027C0007C1287016BCF10E000E068CFFB01DC01D9
:1027D00002C001900D9241505040D8F70895FB017E
:1027E000DC0101900D920020E1F70895F894FFCFED
:1027F000030003023A3B07060504373839413435F4
:102800003642313233432A302344010100009B0415
:10281000800000000000EC077702D304D20400001F
:102820000000CE04CA04C70441636365736F204E81
:102830006F004175746F72697A61646F00486162FC
:1028400069746163696F6E20313A2020004C757A9B
:102850002041706167616461004C757A20456E6348
:10286000656E646964610048616269746163696F7F
:102870006E20323A20200048616269746163696F9A
:102880006E20333A20200048616269746163696F89
:102890006E20343A2020004249454E56454E494468
:1028A0004F20410043415341205E5F5E004552523C
:1028B0004F5220454E00434F4E5452415345C39111
:1028C00041004C452051554544413A20004F504F5E
:1028D0005254554E4944414400414C41524D4100EF
:1028E000414354495641444F00494E475245534590
:1028F0002053552050415353004341534120494EEA
:1029000054454C4947454E544520414345310041CB
:102910004345312D422D47342D533100436F6E74A2
:10292000726F6C204C756365730046696E616C69EB
:082930007A61646F2020200091
:00000001FF
