:100000000C9435010C9466010C9466010C94660105
:100010000C9466010C9466010C9466010C946601C4
:100020000C9466010C9466010C9466010C946601B4
:100030000C9466010C9466010C9466010C946601A4
:100040000C9466010C9466010C9466010C94660194
:100050000C9466010C9466010C9466010C94950A4C
:100060000C9466010C9466010C9466010C94660174
:100070000C9466010C9466010C9466010C94660164
:100080000C9466010C9466010C9466010C94660154
:100090000C9466010C9466010C9466010C94660144
:1000A0000C9466010C9466010C9466010C94660134
:1000B0000C9466010C9466010C9466010C94660124
:1000C0000C9466010C9466010C9466010C94660114
:1000D0000C9466010C9466010C9466010C94660104
:1000E0000C9466010C9458020C9465020C949003D5
:1000F0000C9473020C949B030C947D020C94960652
:100100000C946B020C9479020C946F020C94FB011A
:100110000C9487020C94FB0C0C9446020C949703ED
:100120000C9454020C945B020C9461020C948B02AC
:100130000C9493030C944C020C9486020C949C0334
:100140000C9450020C94810200002100240027002E
:100150002A002D00300033000101000004010701D6
:100160000A0100002200250028002B002E0031008B
:10017000340002010000050108010B0100000A0B18
:1001800002090C0D0E080703040100000000000026
:10019000000000000000000000000000000000005F
:1001A000000000000000000012111000000000001C
:1001B000000000000000000000000000000000003F
:1001C0000000000020002300260029002C002F0042
:1001D00032000001000003010601090105050505C3
:1001E000070508080808020202020A0A08080404AF
:1001F00004040101010101010101030303030303DD
:100200000303040707070C0C0C0C0C0C0C0C02026B
:10021000020206060606060606060B0B0B0B0B0B68
:100220000B0B0102102020080810204010204080F5
:1002300002010201080402010102040810204080AA
:100240008040201008040201800402018040201038
:100250000804020108040201010204081020408081
:100260000102040810204080FB0C11241FBECFEFB8
:10027000D1E2DEBFCDBF00E00CBF24E0A8E4B3E0D4
:1002800001C01D92A130B207E1F713E0A0E0B2E097
:10029000E8ECF1E200E00BBF02C007900D92A83439
:1002A000B107D9F711E0C5E3D1E000E006C021971E
:1002B0000109802FFE010E94C40EC433D10780E0E3
:1002C0000807A9F70E94240B0C94E2100C9400007C
:1002D00096E0899FD0011124AA58BC4F90967C9338
:1002E0006E935F9791E091969C939197E091E303D1
:1002F000F091E4039091E203992339F0309751F0A3
:10030000811108C0809192031994309719F05C967E
:100310008C91FACF0895CF92DF92EF92FF920F93D4
:100320001F9396E0899FF0011124EA58FC4F11A217
:10033000278D30A12130310551F178F0223031057F
:1003400009F451C02330310509F452C01F910F91B7
:10035000FF90EF90DF90CF9008956623B9F361E0AE
:1003600070E00E9468012FB7F89480917203909119
:100370007303A0917403B09175032FBF8093CE03D4
:100380009093CF03A093D003B093D103DFCF9FB757
:10039000F894C0907203D0907303E0907403F090CF
:1003A00075039FBF0091CE031091CF032091D0031E
:1003B0003091D103C01AD10AE20AF30A0091E00396
:1003C0001091E10330E020E00C151D052E053F05DE
:1003D00050F462E070E01F910F91FF90EF90DF907A
:1003E000CF900C9468016111B1CF63E070E0F3CF5E
:1003F00070E060E0F0CFAF92BF92CF92DF92EF92C9
:10040000FF920F931F93CF93DF936C017B018B01BE
:10041000040F151FEB015E01AE18BF08C017D1070E
:1004200059F06991D601ED91FC910190F081E02D98
:10043000C6011995892B79F7C501DF91CF911F91DD
:100440000F91FF90EF90DF90CF90BF90AF90089505
:100450008150823108F05AC0E82FF0E08827EC5C28
:10046000FD4F8F4F0C94C40E5402580246024C02AA
:10047000500286025B02610265026B026F02730228
:1004800079027D028602810287028B0280918000C0
:100490008F77809380000895809180008F7DF9CFC1
:1004A00080918000877FF5CF84B58F7784BD0895D4
:1004B00084B58F7DFBCF8091B0008F778093B000A3
:1004C00008958091B0008F7DF9CF809190008F7753
:1004D000809390000895809190008F7DF9CF809156
:1004E0009000877FF5CF8091A0008F778093A00048
:1004F00008958091A0008F7DF9CF8091A000877F23
:10050000F5CF809120018F7780932001089580910D
:1005100020018F7DF9CF80912001877FF5CFCF9388
:10052000DF93282F30E0F901E458FE4F8491F90160
:10053000EE5DFD4FD491F901E452FE4FC491CC23FE
:10054000A1F081110E942802EC2FF0E0EE0FFF1FB6
:10055000EE53FE4FA591B491EC91ED2381E090E034
:1005600009F480E0DF91CF91089580E090E0FACF28
:100570001F93CF93DF93282F30E0F901E458FE4F0B
:100580008491F901EE5DFD4FD491F901E452FE4FE3
:10059000C491CC23A9F0162F81110E942802EC2FC0
:1005A000F0E0EE0FFF1FEE59FE4FA591B4918FB70B
:1005B000F894EC91111108C0D095DE23DC938FBF25
:1005C000DF91CF911F910895DE2BF8CFCF93DF936A
:1005D00090E0FC01EE5DFD4F249184529E4FFC01A2
:1005E00084918823C9F090E0880F991FFC01E85B93
:1005F000FE4FA591B491FC01EE59FE4FC591D491E7
:1006000061110DC09FB7F8948C91209582238C9333
:100610008881282328839FBFDF91CF91089562307E
:1006200051F49FB7F8943C91822F809583238C934B
:10063000E8812E2BEFCF8FB7F894EC912E2B2C93D3
:100640008FBFEACF90917B00977F90937B0086537A
:10065000806480937C0080917A00806480937A002B
:1006600080917A0086FDFCCF80917800909179008E
:1006700008953FB7F89480915B0390915C03A0913B
:100680005D03B0915E0326B5A89B05C02F3F19F00E
:100690000196A11DB11D3FBFBA2FA92F982F882702
:1006A000BC01CD01620F711D811D911D42E0660FDD
:1006B000771F881F991F4A95D1F708958F929F92AF
:1006C000AF92BF92CF92DF92EF92FF924B015C010B
:1006D0000E9439036B017C010E9439036C197D096A
:1006E0008E099F09683E734081059105A8F321E0BA
:1006F000821A9108A108B10888EEC80E83E0D81EBE
:10070000E11CF11C81149104A104B10429F7FF90AC
:10071000EF90DF90CF90BF90AF909F908F90089513
:10072000862F0C948F02862F642F0C94B802862F8C
:10073000642F0C94E602089590E080E008958F9273
:100740009F92AF92BF920F931F93CF93DF93CDB73A
:10075000DEB7A1970FB6F894DEBF0FBECDBF19A2CA
:10076000423008F44AE08E010F5D1F4F842E912C19
:10077000B12CA12CA50194010E94A20EE62FB90173
:10078000CA01EA3044F5E05DD801EE938D01232BD8
:10079000242B252B79F790E080E0109769F0FD017C
:1007A00001900020E9F73197AF014A1B5B0BBD01B7
:1007B00085EE93E00E94FB01A1960FB6F894DEBF90
:1007C0000FBECDBFDF91CF911F910F91BF90AF9022
:1007D0009F908F900895E95CD7CFFC010190002095
:1007E000E9F73197AF01481B590BBC0185EE93E047
:1007F0000C94FB010F931F9390E0FC01EE5DFD4F05
:100800006491FC01E452FE4FE491F0E0EE0FFF1F13
:10081000EE53FE4F8591949100E412E42FE030E016
:10082000462F0E94DF0A611571058105910529F0A7
:100830006F5F7F4F8F4F9F4F9F701F910F91089554
:100840000F931F93CF93DF93EC01888199810097D9
:1008500059F02A813B812617370730F081E0DF917C
:10086000CF911F910F9108958B016F5F7F4F0E9471
:10087000F10F009759F0998388831B830A832C8199
:100880003D81232B59F7FC011082E8CF80E0E7CFB0
:10089000CF93DF93EC0188819981009711F00E943A
:1008A000680F198218821D821C821B821A82DF91B6
:1008B000CF910895EF92FF920F931F93CF93DF9301
:1008C0008C017B01EB0109900020E9F72197C61B01
:1008D000D70BBE010E942004811109C0C801DF911D
:1008E000CF911F910F91FF90EF900C944804F80165
:1008F000D583C483B70180819181DF91CF911F910E
:100900000F91FF90EF900C94DB10FC01808191819E
:10091000009711F00C94680F0895CF93DF93EC01CA
:1009200060E08E810E94B80261E08E810E94B80270
:1009300060E08E810E94B8028BE891E00197F1F7A8
:10094000DF91CF910895CF92DF92EF92FF920F93B4
:100950001F93CF93DF936C017C0187E0E80EF11CBD
:10096000D0E0C0E0062F10E0B8010C2E02C0759553
:1009700067950A94E2F76170F70181917F010E9407
:10098000B8022196C430D10579F7C601DF91CF9125
:100990001F910F91FF90EF90DF90CF900C948D04FA
:1009A000CF92DF92EF92FF920F931F93CF93DF933B
:1009B000EC01F62E642F8C810E94B8028D818F3F4E
:1009C00019F060E00E94B8020F2D10E08F8584FFBF
:1009D00025C06E0187E0C80ED11CF12CE12CB801B6
:1009E0000E2C02C0759567950A94E2F76170F601C6
:1009F00081916F010E94B802FFEFEF1AFF0A88E0B1
:100A0000E816F10461F7CE01DF91CF911F910F91AC
:100A1000FF90EF90DF90CF900C948D04B80184E0AC
:100A2000759567958A95E1F7CE010E94A3046F2D15
:100A3000CE01DF91CF911F910F91FF90EF90DF904A
:100A4000CF900C94A30440E0682F85EE93E00C94C3
:100A5000D00481E00E9423058BE39FE10197F1F729
:100A60000895CF93DF93823029F49091F403986036
:100A70009093F4038093F8031092F90380E4809339
:100A8000FA0380E18093FB0380E58093FC0361E03F
:100A90008091E9030E94E6028091EA038F3F19F0FA
:100AA00061E00E94E60261E08091EB030E94E602B1
:100AB000C5EED3E09E01255E33408091F40384FDB2
:100AC0000BC084E090E021962817390744F461E0D8
:100AD0008E810E94E602EECF88E090E0F4CF8BE3B7
:100AE0009DE00197F1F760E08091E9030E94B80270
:100AF00060E08091EB030E94B8028091EA038F3F8F
:100B000019F060E00E94B8028091F40384FD34C0C3
:100B100063E085EE93E00E94A304CBE4D6E4CE012B
:100B20000197F1F763E085EE93E00E94A30421971B
:100B3000F1F763E085EE93E00E94A30483E592E081
:100B40000197F1F762E085EE93E00E94A3048091A3
:100B5000F40380620E94230584E08093F5038CE017
:100B60000E9423050E94290582E08093F60386E017
:100B7000DF91CF910C94230580620E9423058BE4C2
:100B800096E40197F1F78091F40380620E942305B7
:100B900083E592E00197F1F78091F40380620E946F
:100BA0002305D5CF9091F803691710F06FEF690F07
:100BB000E62FF0E0EB51FC4F9489890F80680C948C
:100BC0002305CF93DF93C3E4D0E061E08EE30E947E
:100BD000E60261E08FE30E94E60261E08EE30E949C
:100BE000B80261E08FE30E94B80260E083E00E94F7
:100BF000D20588E392E00E94ED0361E083E00E9469
:100C0000D20582E492E00E94ED0366E970E080E0A4
:100C100090E00E945E0360E08EE30E94B80260E014
:100C20008FE30E94B80266E970E080E090E00E94E5
:100C30005E03219751F6DF91CF910895CF93DF9313
:100C4000C1E0D0E0C130D105A9F586E30E942203BE
:100C5000909349038093480390936E0380936D03B0
:100C600060E081E00E94D2058DE492E00E94ED03F5
:100C7000809148039091490361E08A369105A4F47C
:100C800081E00E94D2058DE592E00E94ED0368EBC1
:100C90007BE080E090E00E945E032196C530D105A4
:100CA00089F6DF91CF91089581E00E94D20589E60F
:100CB00092E0EBCFC230D10591F487E30E9422038A
:100CC000909349038093480390936A038093690348
:100CD00060E081E00E94D20587E792E0C7CFC33091
:100CE000D10591F488E30E942203909349038093F5
:100CF0004803909366038093650360E081E00E945F
:100D0000D20587E892E0B2CF89E30E942203909354
:100D1000490380934803909362038093610360E0EA
:100D200081E00E94D20587E992E0A0CF41E00E94D5
:100D3000D00481E090E008956F927F928F929F920D
:100D4000AF92BF92CF92DF92EF92FF920F931F93D9
:100D5000CF93DF9381E08093E2038FB7F8944091C3
:100D600072035091730360917403709175038FBF88
:100D70008091D2039091D303A091D403B091D50375
:100D8000481B590B6A0B7B0B8091DE039091DF03AC
:100D9000B0E0A0E084179507A607B70708F019C1CF
:100DA000C0E08091DC03C81760F4E091D803F091B3
:100DB000D903EC0FF11D62E080810E94E602CF5F53
:100DC000F0CF712C812C912C540183948091DD0300
:100DD000781608F05FC0072D10E0E091DA03F0917B
:100DE000DB03E00FF11F61E080810E94E602E091E9
:100DF000DA03F091DB03E00FF11F60E080810E94D5
:100E0000B802D501C401072C04C0880F991FAA1F7E
:100E1000BB1F0A94D2F76C017C01E094F094612C22
:100E20008091DC036816F8F4C62DD0E0E091D80379
:100E3000F091D903EC0FFD1F80810E948F02249650
:100E4000CC0FDD1FCA58DC4F892B41F48881998172
:100E50008C299D29998388836394E2CF8881998125
:100E60008E219F21F7CFE091DA03F091DB03E00FB1
:100E7000F11F61E080810E94B8028091DA039091B5
:100E8000DB03080F191F60E0F80180810E94E60271
:100E900073949CCFC6E7D3E0FE018FEF9FEF278DC1
:100EA00030A1232B21F4148E968F858F11A23696B4
:100EB00023E0E23BF20799F7F12C96E0D92E8091DE
:100EC000DC03F81608F050C0E12C0F2D10E0000FE5
:100ED000111F02581C4F2091DD03E21608F042C09A
:100EE000F801608171810E2C02C0769567950A9495
:100EF000E2F7F29E900111242E0D311DE6E7F3E09A
:100F000080E0458D568D2417350709F434C28F5F74
:100F100036968A30B1F760FF23C0E6E7F3E090E051
:100F200080E0448D411117C0E091D603F091D703C2
:100F3000E20FF31F4081D89EF001D99EF00D1124DD
:100F4000EA58FC4F448F368F258F10A2178E61E030
:100F50000E948B0105C0019636968A30910509F7EB
:100F6000E394B9CFF394ABCF80E099A19111892F8D
:100F70002696F3E0C23BDF07C1F79FB7F894409194
:100F800072035091730360917403709175039FBF56
:100F90004093D2035093D3036093D4037093D5034B
:100FA0008823B9F080919703882399F08091950365
:100FB00090919603019769F4C0919203C1110CC0FE
:100FC00060E080E00E94D20589EF92E00E94ED038C
:100FD00033C01092E203F4CF0091580310915903EB
:100FE000D5E0D00F61E08D2F0E94D20541E06C2F3B
:100FF00085EE93E00E94D00461E08D2F0E94D2051F
:1010000041E06AE285EE93E00E94D004C0530F5F96
:101010001F4F10935903009358030330110509F42F
:10102000CFC0F4F40130110509F4B8C00230110545
:1010300009F4BDC0CC2321F262E070E080E090E0D2
:10104000DF91CF911F910F91FF90EF90DF90CF90A4
:10105000BF90AF909F908F907F906F900C945E03A5
:101060000530110509F4BEC00CF4B3C006301105FB
:1010700009F70C2F0C2E000C110B10934D0300934D
:101080004C0364E670E080E090E00E945E03809193
:10109000560390915703029709F0ADC08091540315
:1010A00090915503892B09F0A6C08091520390912D
:1010B0005303029709F09FC0809150039091510310
:1010C000019709F098C080914E0390914F03892BAE
:1010D00009F091C00430110509F08DC00E94290566
:1010E00060E083E00E94D20587EA92E00E94ED036F
:1010F00061E083E00E94D20584EB92E00E94ED0360
:1011000081E080936F031092710361E086E30E9497
:10111000B8026CEB72E080E090E00E945E0360E059
:1011200086E30E94B802809156039091570302977C
:1011300009F082C08091540390915503892B09F0E6
:101140007BC08091520390915303029709F074C0C1
:101150008091500390915103019709F06DC08091E7
:101160004E0390914F03892B09F066C080914C0388
:1011700090914D03049709F05FC010924B031092B9
:101180004A0383E090E09093010280930002109262
:101190005903109258030E9429054CCF8C2F0C2E16
:1011A000000C990B909357038093560343CF8C2FD9
:1011B0000C2E000C990B90935503809354033ACF57
:1011C0008C2F0C2E000C990B909353038093520399
:1011D00031CF8C2F0C2E000C990B909351038093E0
:1011E000500328CF8C2F0C2E000C990B90934F039B
:1011F00080934E031FCF0E94290560E083E00E9488
:10120000D2058DEB92E00E94ED0361E082E00E9446
:10121000D20586EC92E00E94ED0361E087E30E9434
:10122000B80260E971E080E090E00E945E030E94F5
:10123000290560E087E375CF80914A0390914B03C5
:10124000019690934B0380934A0380910002909102
:1012500001020197909301028093000260E082E016
:101260000E94D20582ED92E00E94ED0360E08DE0E5
:101270000E94D205C0900002D09001020D2C000CFB
:10128000EE08FF084AE0C701B601F7FE0EC041E0D4
:101290006DE285EE93E00E94D00466277727CB01AC
:1012A0006C197D098E099F094AE00E949F0361E045
:1012B00082E00E94D2058DED92E00E94ED038091C4
:1012C000000290910102892BB9F40E94290560E087
:1012D00085E00E94D20589EE92E00E94ED0361E074
:1012E00084E00E94D20580EF92E00E94ED0310920C
:1012F000710381E0809370036CE271E080E090E024
:101300000E945E030E942905D1E003E010E0809175
:101310004A0390914B0303970CF439CFD093700399
:101320000E94E105D093710310927003109257034D
:1013300010925603109255031092540310925303C7
:1013400010925203109251031092500310924F03C7
:1013500010924E0310924D0310924C0310924B03C7
:1013600010924A0310930102009300021092590355
:1013700010925803CCCF6170EBCD3F924F925F92A9
:101380006F927F928F929F92AF92BF92CF92DF9295
:10139000EF92FF920F931F93CF93DF9300D000D073
:1013A000CDB7DEB75C018B01FB014480558090E135
:1013B000F92E0E94290561E08F2D0E94D205F801C7
:1013C000448155816081718185EE93E00E94FB012B
:1013D00066E970E080E090E00E945E03FA94F1100C
:1013E000E8CF66246394712CF801E480F5804614FC
:1013F00057040CF46DC04301F1E08F1A9108E81412
:10140000F90428F09E2D8F2D7401892E982E1A82B2
:1014100019821C821B821E821D8267E473E0CE014A
:1014200001960E945A04F801C480D580EC14FD0492
:1014300058F58C149D0408F46401F80180819181B1
:10144000FC01EC0DFD1D30801082E80EF91EE11448
:10145000F10479F0F70101900020E9F731974F018D
:101460008E189F08B401CE0101960E9420048111BC
:1014700027C0CE0101960E944804F8018081918125
:10148000C80ED91EF601308261E080E00E94D205CC
:101490004D815E8169817A8185EE93E00E94FB0136
:1014A00066E970E080E090E00E945E030E942905FA
:1014B000CE0101960E948504FFEF6F1A7F0A94CF38
:1014C0009E828D82B70189819A810E94DB10D5CFDF
:1014D00080819181F50191838083F80182819381DC
:1014E000F50193838283F582E482F80111821082F0
:1014F0001382128215821482C50126960FB6F894C3
:10150000DEBF0FBECDBFDF91CF911F910F91FF9036
:10151000EF90DF90CF90BF90AF909F908F907F9093
:101520006F905F904F903F9008951F920F920FB66B
:101530000F9211242F933F938F939F93AF93BF9359
:101540008091720390917303A0917403B09175031D
:1015500030915A0323E0230F2D3758F50196A11D32
:10156000B11D20935A038093720390937303A09349
:101570007403B093750380915B0390915C03A09119
:101580005D03B0915E030196A11DB11D80935B03C5
:1015900090935C03A0935D03B0935E03BF91AF9102
:1015A0009F918F913F912F910F900FBE0F901F90A1
:1015B000189526E8230F0296A11DB11DD2CFCF9218
:1015C000DF92EF92FF920F931F93E82FF92F05C040
:1015D000015011092109310961F190819623941775
:1015E000B9F305C0015011092109310911F19081A8
:1015F00096239413F7CFC12CD12CE12CF12C0AC0E7
:101600008FEFC81AD80AE80AF80A0C151D052E052E
:101610003F0579F080818623841791F36C2D7D2D11
:101620008E2D9F2D1F910F91FF90EF90DF90CF9007
:10163000089560E070E080E090E01F910F91FF90CE
:10164000EF90DF90CF900895CF93DF93CDB7DEB7C3
:101650002C970FB6F894DEBF0FBECDBF789484B53B
:10166000826084BD84B5816084BD85B5826085BD9E
:1016700085B5816085BD80916E00816080936E002C
:10168000109281008091810082608093810080911E
:1016900081008160809381008091800081608093CF
:1016A00080008091B10084608093B1008091B0008F
:1016B00081608093B000809191008260809391005E
:1016C0008091910081608093910080919000816071
:1016D000809390008091A10082608093A10080910E
:1016E000A10081608093A1008091A000816080931F
:1016F000A0008091210182608093210180912101CD
:10170000816080932101809120018160809320017C
:1017100080917A00846080937A0080917A00826060
:1017200080937A0080917A00816080937A00809122
:101730007A00806880937A001092C10082E00E9453
:10174000310560E081E40E94E60261E080E40E94ED
:10175000E60260E084E40E94E60261E083E40E9425
:10176000E60283E2282E312C60E083E40E94B80276
:101770008FE090E00197F1F761E083E40E94B80206
:10178000C1010197F1F760E083E40E94B80284E4AC
:101790000E94FA030E94730D28E23EE74CE05DE3ED
:1017A0000E94AE0D20E030E040E05FE30E94AE0D0D
:1017B0000E946C0E663971058105910514F40E9432
:1017C000290580911B028823F1F118861F821A8651
:1017D00019861C861B8669E073E0CE0107960E947D
:1017E0005A04BE01695F7F4FCE0101960E94BD0978
:1017F000CE0101960E948504CE0107960E948504C1
:1018000066E970E080E090E00E945E030E94290596
:1018100018861F821A8619861C861B866FE173E064
:10182000CE0107960E945A04BE01695F7F4FCE0128
:1018300001960E94BD09CE0101960E948504CE0149
:1018400007960E94850480911A028823B9F160E00E
:1018500080E40E94B8028FE090E00197F1F761E028
:1018600080E40E94B802C1010197F1F760E080E4D2
:101870000E94B80281E40E94FA030E94730D28E2DC
:101880003EE74CE05DE30E94AE0D20E030E040E03A
:101890005FE30E94AE0D0E946C0E663971058105F2
:1018A00091050CF07AC00E94290510921B0210923B
:1018B0001A0281E0809371030E949C06809171035B
:1018C000882331F080917003811102C00E949C0630
:1018D00080916F03882309F453C000916D03109128
:1018E0006E0310936C0300936B0386E30E94220344
:1018F0004C0190936E0380936D03E0906903F09028
:101900006A03F0926803E092670387E30E94220370
:101910005C0190936A038093690360906503709003
:101920006603709264036092630388E30E9422035B
:101930006C0190936603809365034090610350901F
:1019400062035092600340925F0389E30E94220386
:10195000909362038093610398012E0D3F1D260D25
:10196000371D240D351D232B01F594012A0D3B1D38
:101970002C0D3D1D280F391F232BB9F40E941E0684
:101980008091700381110E94E10580E090E0892B35
:1019900009F4EACE0E940000E7CE81E080931A02AB
:1019A00080931B020E94290589CF08191909EA189A
:1019B000FB08E00EF11E6C187D086E0C7F1C84196C
:1019C000950986159705D1F660E081E00E94D20561
:1019D0008CE293E00E94ED0361E081E00E94D20579
:1019E0008AE393E00E94ED0360E273E080E090E020
:1019F0000E945E03C5CF1092780310927C03109270
:101A00007B0310927D0382E392E0909377038093AF
:101A10007603E2E9F3E0108214821382158236968F
:101A200083E0EE3CF807B9F786E092E09093D903A3
:101A30008093D80382E092E09093DB038093DA03F3
:101A400084E08093DC038093DD038AE092E090934E
:101A5000D7038093D6038AE090E09093DF038093CE
:101A6000DE0384EF91E09093E1038093E003109212
:101A7000E4031092E3031092D2031092D303109266
:101A8000D4031092D5031092E2031092E80310924F
:101A9000E70386E292E09093E6038093E5038DE00E
:101AA0008093E9038FEF8093EA038CE08093EB034C
:101AB0008BE08093EC038AE08093ED0389E08093D0
:101AC000EE0388E08093EF031092F0031092F1038D
:101AD0001092F2031092F3031092F40381E00C943D
:101AE0003105E89409C097FB3EF490958095709578
:101AF00061957F4F8F4F9F4F9923A9F0F92F96E95A
:101B0000BB279395F695879577956795B795F111CE
:101B1000F8CFFAF4BB0F11F460FF1BC06F5F7F4F6B
:101B20008F4F9F4F16C0882311F096E911C077237D
:101B300021F09EE8872F762F05C0662371F096E886
:101B4000862F70E060E02AF09A95660F771F881F55
:101B5000DAF7880F9695879597F908950E94C10D39
:101B60000C94320E0E94240E38F00E942B0E20F0AE
:101B7000952311F00C941B0E0C94210E11240C943F
:101B8000660E0E94430E70F3959FC1F3950F50E0CF
:101B9000551F629FF001729FBB27F00DB11D639F1F
:101BA000AA27F00DB11DAA1F649F6627B00DA11DC5
:101BB000661F829F2227B00DA11D621F739FB00D6B
:101BC000A11D621F839FA00D611D221F749F3327DB
:101BD000A00D611D231F849F600D211D822F762F74
:101BE0006A2F11249F5750409AF0F1F088234AF051
:101BF000EE0FFF1FBB1F661F771F881F91505040BD
:101C0000A9F79E3F510580F00C941B0E0C94660EB4
:101C10005F3FE4F3983ED4F3869577956795B79543
:101C2000F795E7959F5FC1F7FE2B880F911D96955D
:101C3000879597F9089597F99F6780E870E060E0CD
:101C400008959FEF80EC089500240A941616170655
:101C500018060906089500240A941216130614069D
:101C600005060895092E0394000C11F4882352F000
:101C7000BB0F40F4BF2B11F460FF04C06F5F7F4FB8
:101C80008F4F9F4F089557FD9058440F551F59F09F
:101C90005F3F71F04795880F97FB991F61F09F3F59
:101CA00079F087950895121613061406551FF2CF82
:101CB0004695F1DF08C0161617061806991FF1CFD2
:101CC00086957105610508940895E894BB276627F9
:101CD0007727CB0197F908950E94730E6894B1118C
:101CE0000C94660E08950E944B0E88F09F5798F052
:101CF000B92F9927B751B0F0E1F0660F771F881F11
:101D0000991F1AF0BA95C9F714C0B13091F00E942A
:101D1000650EB1E008950C94650E672F782F882723
:101D2000B85F39F0B93FCCF3869577956795B39551
:101D3000D9F73EF490958095709561957F4F8F4FC0
:101D40009F4F0895A1E21A2EAA1BBB1BFD010DC0D7
:101D5000AA1FBB1FEE1FFF1FA217B307E407F5075B
:101D600020F0A21BB30BE40BF50B661F771F881F37
:101D7000991F1A9469F760957095809590959B01CD
:101D8000AC01BD01CF010895EE0FFF1F881F8BBF6F
:101D90000790F691E02D19940F931F93CF93DF9343
:101DA0008230910510F482E090E0E091FF03F09121
:101DB000000430E020E0B0E0A0E0309799F4211575
:101DC000310509F44AC0281B390B24303105D8F5F8
:101DD0008A819B816115710589F1FB01938382835F
:101DE000FE0111C0408151810281138148175907BA
:101DF000E0F04817590799F4109761F012960C9388
:101E0000129713961C933296CF01DF91CF911F91B9
:101E10000F9108950093FF0310930004F4CF211550
:101E2000310551F04217530738F0A901DB019A013F
:101E3000BD01DF01F801C1CFEF01F9CF909300049C
:101E40008093FF03CDCFFE01E20FF31F81939193A7
:101E50002250310939832883D7CF2091FD03309157
:101E6000FE03232B41F420911E0230911F02309378
:101E7000FE032093FD0320911C0230911D022115C9
:101E8000310541F42DB73EB7409120025091210217
:101E9000241B350BE091FD03F091FE03E217F307DD
:101EA000A0F42E1B3F0B2817390778F0AC014E5FCA
:101EB0005F4F2417350748F04E0F5F1F5093FE0306
:101EC0004093FD03819391939FCFF0E0E0E09CCF9E
:101ED000CF93DF930097E9F0FC01329713821282CF
:101EE000A091FF03B0910004ED0130E020E01097D5
:101EF000A1F420813181820F931F2091FD03309145
:101F0000FE032817390709F061C0F093FE03E09340
:101F1000FD03DF91CF910895EA01CE17DF07E8F5C1
:101F20004A815B819E0141155105B1F7E901FB83AF
:101F3000EA8349915991C40FD51FEC17FD0761F44D
:101F4000808191810296840F951FE901998388838E
:101F5000828193819B838A83F0E0E0E012968D91E9
:101F60009C9113970097B9F52D913C911197CD0154
:101F70000296820F931F2091FD033091FE032817D4
:101F8000390739F6309751F5109200041092FF038B
:101F9000B093FE03A093FD03BCCFD383C2834081E3
:101FA0005181840F951FC817D90761F44E5F5F4FA9
:101FB00088819981480F591F518340838A819B8171
:101FC000938382832115310509F0B0CFF09300048B
:101FD000E093FF039ECFFD01DC01C0CF138212828C
:101FE000D7CF4F925F926F927F928F929F92AF92D4
:101FF000BF92CF92DF92EF92FF920F931F93CF93F6
:10200000DF938C01009799F4CB01DF91CF911F9161
:102010000F91FF90EF90DF90CF90BF90AF909F9087
:102020008F907F906F905F904F900C94CC0EFC013E
:10203000E60FF71F9C0122503109E217F30708F45D
:10204000AEC0D901CD91DC911197C617D70720F109
:10205000C530D10578F0CE0104978617970750F068
:10206000C61BD70B2297C193D1936D937C93CF015D
:102070000E94680FC801DF91CF911F910F91FF90CF
:10208000EF90DF90CF90BF90AF909F908F907F9018
:102090006F905F904F9008955B01AC1ABD0A4C01A0
:1020A0008C0E9D1EA091FF03B0910004512C412C79
:1020B000F12CE12C109731F58091FD039091FE03F6
:1020C0008815990509F05CC04616570608F058C0F7
:1020D00080911C0290911D02009741F48DB79EB72C
:1020E0004091200250912102841B950BE817F907BB
:1020F00008F055C0F093FE03E093FD03F9017183EE
:102100006083B8CF8D919C91119712966C90129725
:1021100013967C901397A815B90559F56C0142E008
:10212000C40ED11CCA14DB0420F1AC014A195B09AE
:10213000DA011296159780F0628273825183408390
:10214000D9016D937C93E114F10471F0D7011396DA
:10215000FC93EE9312978ECF22968C0F9D1FF90160
:1021600091838083F301EFCFF0930004E093FF03AA
:1021700081CF4816590608F42C017D01D3019ACF6E
:10218000CB010E94CC0E7C01009749F0AE01B80152
:102190000E94D210C8010E94680F87016BCF10E027
:1021A00000E068CFFB01DC0102C001900D924150BC
:1021B0005040D8F70895FB01DC0101900D920020FA
:0821C000E1F70895F894FFCF48
:1021C800030003023A3B0706050437383941343522
:1021D8003642313233432A302344010100000104DE
:1021E8008000000000009606FB019C039B03000092
:1021F800000097039303900341636365736F204E58
:102208006F004175746F72697A61646F004861622A
:1022180069746163696F6E20313A2020004C757AC9
:102228002041706167616461004C757A20456E6376
:10223800656E646964610048616269746163696FAD
:102248006E20323A20200048616269746163696FC8
:102258006E20333A20200048616269746163696FB7
:102268006E20343A2020004249454E56454E494496
:102278004F20410043415341205E5F5E004552526A
:102288004F5220454E00434F4E5452415345C3913F
:1022980041004C452051554544413A20004F504F8C
:1022A8005254554E4944414400414C41524D41001D
:1022B800414354495641444F00494E4752455345BE
:1022C8002053552050415353004341534120494E18
:1022D80054454C4947454E544520414345310041FA
:1022E8004345312D422D47342D533100436F6E74D1
:1022F800726F6C204C756365730046696E616C691A
:082308007A61646F20202000BF
:00000001FF
